:100000000A128A11282C00308A000408840A820708
:100010000034203420345234453453345434413481
:10002000523454342034473441344D344534203430
:100030002034003420342034533454344134523486
:1000400054342034473441344D3445342034203442
:10005000003420342034473441344D344534203486
:100060004F34563445345234203420340034303444
:10007000313432343334343435343634373438343C
:1000800039340034733463346F347234653420345B
:060090003A342034003474
:1007A600FF34FF347E088A007F088200D5230A12B0
:1007B6008A118000840A04087D0603190034FF0AA2
:1007C6000319FE0AD92BF2008312031307108710B0
:1007D6000715720888008230F100DD30F000F00B5A
:1007E600F22BF10BF22BF72B8312031307110800E0
:1007F600F200831203130714871007157208880086
:100806008230F100DD30F000F00B072CF10B072CE5
:100816000C2C83120313071108000334023413341B
:1008260016341E340E340A340A340E340E340434AC
:100836001E34043404341E34003414341434153491
:1008460015341D34063404341F34E101E201E3019A
:10085600E401E501E601E701E801E901EA01EB014E
:10086600EC0183136130FD000430FE001030FF0000
:10087600493084000A128A11D9230A128A110A12EF
:100886008A11D3230A128A11FC000A128A11D42370
:100896000A128A11FD0083010A128A118B2EC030BA
:1008A6000A128A11E6230A128A1103300A128A11E1
:1008B600FB230A128A1181300A128A11E6230A12D0
:1008C6008A1101300A128A11FB230A128A11813019
:1008D6000A128A11E6230A128A1103300A128A11B1
:1008E600FB230A128A11C0300A128A11E6230A1261
:1008F6008A1100300A128A11FB230A128A1101306A
:10090600FC070318FD0A0030FD07892C080001309A
:100916000A128A11E6230A128A1180300A128A11F3
:10092600E6230A128A111230F3007308F600F70163
:10093600F8017808803AFF0080307F02031DA52C5D
:100946000E307702031CA82CA92CAB2CD92CD92C41
:100956007708760784000A128A1103200A128A1180
:100966000A128A11FB230A128A110830F500963002
:10097600F4000930F300F30BBE2CF40BBE2CF50B80
:10098600BE2C64000130F7070318F80A0030F80798
:100996007808803AFF0080307F02031DD42C0E3089
:1009A6007702031CD72CD82CAB2CD92C0800F600C8
:1009B6007308F40002300310F40DFF3E031DDE2C15
:1009C6000310740D403E0A128A11E6230A128A1198
:1009D6008230F500DD30F400F40BEF2CF50BEF2C34
:1009E600F42CF701F8017808803AFF0080307F0286
:1009F600031DFF2C08307702031C022D032D052D45
:100A0600252D252D77087607F400740884008313B6
:100A160000080A128A11FB230A128A110130F7070D
:100A26000318F80A0030F8077808803AFF0080308B
:100A36007F02031D202D08307702031C232D242D51
:100A4600052D252D8230F500DD30F400F40B292D1F
:100A5600F50B292D2E2D080001300A128A11E623E6
:100A66000A128A1180300A128A11E6230A128A11A2
:100A76002130F900790883120313A000A101A20115
:100A86002208803AFF0080307F02031D4C2D0E3075
:100A96002102031C4F2D502D522D842D842D83129F
:100AA60003132108200784000A128A1103200A1260
:100AB6008A110A128A11FB230A128A110830FB00D6
:100AC6009630FA000930F900F90B672DFA0B672DFD
:100AD600FB0B672D6400013083120313A107031873
:100AE600A20A0030A2072208803AFF0080307F0267
:100AF600031D7F2D0E302102031C822D832D522DC6
:100B0600842D0A128A118A250A128A1108000130D8
:100B16000A128A11E6230A128A1180300A128A11F1
:100B2600E6230A128A110130F3007308F600F70172
:100B3600F8017808803AFF0080307F02031DA52D5A
:100B460010307702031CA82DA92DAB2DD92DD92D38
:100B56007708760784000A128A1103200A128A117E
:100B66000A128A11FB230A128A110830F500963000
:100B7600F4000930F300F30BBE2DF40BBE2DF50B7C
:100B8600BE2D64000130F7070318F80A0030F80795
:100B96007808803AFF0080307F02031DD42D103084
:100BA6007702031CD72DD82DAB2DD92D8312031315
:100BB600071EDE2DDF2DD92D01300A128A11E623FC
:100BC6000A128A1183120313E901EA01FC01FD01ED
:100BD6000A128A118B260A128A11D92DD92DD92DDE
:100BE60008002F30F3007308F7003A30F30073085B
:100BF600F60082300A128A11E6230A128A11F801D7
:100C0600F9017908803AFF0080307F02031D0D2E1E
:100C160007307802031C102E112E132E342E342E7C
:100C26007808760784000A128A1103200A128A11AC
:100C36000A128A11FB230A128A110130F8070318D7
:100C4600F90A0030F9077908803AFF0080307F0200
:100C5600031D2F2E07307802031C322E332E132E3F
:100C6600342E8A300A128A11E6230A128A11831256
:100C760003136B08770784000A128A1103200A12ED
:100C86008A110A128A11FB230A128A118B300A1260
:100C96008A11E6230A128A117C08770784000A1251
:100CA6008A1103200A128A110A128A11FB230A12D8
:100CB6008A110330F5008830F4005630F300F30B48
:100CC600622EF40B622EF50B622E7D08803AFF0031
:100CD60080307F02031D712E0B307C02031C742EA4
:100CE600752E8A2EFC01FD01013083120313EB07DA
:100CF6000318EC0A0030EC0709306B066C04031D80
:100D0600852E862E8A2EEB01EC018A2E8A2E08006D
:100D16008316031387018801871507162730840079
:100D2600493083120313A3000408A4000830A50069
:100D36002308840083130008A600A30A240884005D
:100D460026088000A40AA50B9B2EF30127300A1261
:100D56008A11DA240A128A112F3084005130831244
:100D66000313A3000408A4000830A5002308840088
:100D760083130008A600A30A24088400260880001E
:100D8600A40AA50BB92EF3010314F30D2F300A1292
:100D96008A11DA240A128A113730840059308312F4
:100DA6000313A3000408A4000830A5002308840048
:100DB60083130008A600A30A2408840026088000DE
:100DC600A40AA50BD92E0230A3002308F30037305E
:100DD6000A128A11DA240A128A113F30840061301D
:100DE60083120313A3000408A4000830A5002308F7
:100DF600840083130008A600A30A2408840026089A
:100E06008000A40AA50BFA2E0330A3002308F300E2
:100E16003F300A128A11DA240A128A1101300A12A4
:100E26008A11E6230A128A110C300A128A11E62365
:100E36000A128A1138300A128A11E6230A128A1116
:100E46000A128A118A240A128A11C0300A128A11D9
:100E5600E6230A128A1100300A128A11FB230A12AB
:100E66008A11CF300A128A11E6230A128A11023039
:100E76000A128A11FB230A128A1183120313C7016D
:100E8600C8010630A5000E30A400B030A300A30BA5
:100E96004A2FA40B4A2FA50B4A2F01300A128A119A
:100EA600E6230A128A11572F83120313871D5C2F1C
:100EB6005D2F632F0A128A1152240A128A11632F98
:100EC6000A128A11F4250A128A1103300A128A11AB
:100ED600FB230A128A11831203136903FF3ACF3EDA
:100EE6000A128A11E6230A128A1103300A128A119B
:100EF600FB230A128A11033083120313A5008830DC
:100F0600A4005630A300A30B862FA40B862FA50B97
:100F1600862F03300A128A11FB230A128A118312C2
:100F260003136903FF3ACF3E0A128A11E6230A1217
:100F36008A1102300A128A11FB230A128A11013021
:100F460083120313E9070318EA0A0030EA07871D2C
:100F5600AD2FAE2FB42F0A128A1152240A128A110B
:100F6600B42F831203136A08803AFF0080307F0291
:100F7600031DBF2F10306902031CC22FC32FCF2FB2
:100F8600831203138719C82FC92FCF2F0A128A116C
:100F96002F250A128A11CF2F831203136A08803A6B
:100FA600FF0080307F02031DDA2F10306902031C18
:100FB600DD2FDE2F572FC0300A128A11E6230A12C0
:100FC6008A1103300A128A11FB230A128A1183122C
:100FD6000313E901EA01C0300A128A11E6230A1254
:100FE6008A1100300A128A11FB230A128A11572F1E
:0A0FF600572F572F0A128A11002806
:02400E007A1F17
:00000001FF
