:060000000A128A11E92D2D
:100B28001534153415341F340434043404340034B3
:100B380007340734063417341F34063406340034B7
:100B4800F000831203130710871007157008880038
:100B58000A128A11D7250A128A1183120313071160
:100B68000800F00083120313071487100715700894
:100B780088000A128A11D7250A128A1183120313D0
:100B8800071108007E088A007F088200C6250A121D
:100B98008A118000840A04087D0603190034FF0ABC
:100BA8000319FE0ACA2D831203139010101690160B
:100BB8000B308F00DC308E001014E22D0C1CE52D5C
:100BC800E62DE22D0C1010100800F701F801B00115
:100BD800B101B201B301B401B501B601B701831384
:100BE8003030FD000530FE009430FF0020308400D6
:100BF8000A128A11CA250A128A1183010A128A1155
:100C0800122FF3007108F20002300310F20DFF3EBC
:100C1800031D092E0310720D403E0A128A11A425E5
:100C28000A128A110A128A11D7250A128A11F401A6
:100C3800F5017508803AFF0080307F02031D262EDB
:100C480008307402031C292E2A2E2C2E512E512EC8
:100C580074087307F20072088400831300080A12EC
:100C68008A11B5250A128A110A128A11D7250A1281
:100C78008A110130F4070318F50A0030F5077508E2
:100C8800803AFF0080307F02031D4C2E083074022A
:100C9800031C4F2E502E2C2E512EC0300A128A11B2
:100CA800A4250A128A11080080300A128A11A42584
:100CB8000A128A1120300A128A11B5250A128A11DD
:100CC80020300A128A11B5250A128A1120300A1218
:100CD8008A11B5250A128A1147300A128A11B525D8
:100CE8000A128A1141300A128A11B5250A128A118C
:100CF8004D300A128A11B5250A128A1145300A1296
:100D08008A11B5250A128A1120300A128A11B525CE
:100D18000A128A114F300A128A11B5250A128A114D
:100D280056300A128A11B5250A128A1145300A125C
:100D38008A11B5250A128A1152300A128A11B5256C
:100D48000A128A1100300A128A11B5250A128A116C
:100D58000800C0300A128A11A4250A128A11033029
:100D68000A128A11B5250A128A1181300A128A11CB
:100D7800A4250A128A1101300A128A11B5250A120D
:100D88008A110A128A11D7250A128A11F101F20171
:100D98007208803AFF0080307F02031DD52E08308C
:100DA8007102031CD82ED92EDB2EF92EF92E7108CC
:100DB800283E8400831300080A128A11B5250A12F6
:100DC8008A110130F1070318F20A0030F20772089D
:100DD800803AFF0080307F02031DF42E0830710234
:100DE800031CF72EF82EDB2EF92E81300A128A11F9
:100DF800A4250A128A1103300A128A11B5250A128B
:100E08008A11C0300A128A11A4250A128A110030E8
:100E18000A128A11B5250A128A110800F101031471
:100E2800F10D20300A128A1105260A128A110230A1
:100E3800F6007608F10028300A128A1105260A12EF
:100E48008A110330F6007608F10030300A128A1150
:100E580005260A128A1183160313880107108710C2
:100E68000711871501300A128A11A4250A128A115E
:100E78000C300A128A11A4250A128A1138300A1273
:100E88008A11A4250A128A11C0300A128A11A425CF
:100E98000A128A1100300A128A11B5250A128A111B
:100EA800CF300A128A11A4250A128A1102300A12B6
:100EB8008A11B5250A128A1101300A128A11A4254D
:100EC8000A128A110A128A11D7250A128A116C2F5E
:100ED80083120313871D712F722F782F0A128A111C
:100EE800AD260A128A11782F03300A128A11B52505
:100EF8000A128A117703FF3ACF3E0A128A11A425F3
:100F08000A128A1103300A128A11B5250A128A11A7
:100F18000A128A11D7250A128A117703FF3ACF3E9F
:100F28000A128A11A4250A128A1102300A128A1199
:100F3800B5250A128A110130F7070318F80A00309C
:100F4800F8077808803AFF0080307F02031DAE2F33
:100F580010307702031CB12FB22FC72F831203134F
:100F68008719B72FB82FC72F0A128A1158260A12C5
:100F78008A1101300A128A11A4250A128A1112272D
:100F88000A128A11C72F7808803AFF0080307F0242
:100F9800031DD02F10307702031CD32FD42FEF2F2F
:100FA800C0300A128A11A4250A128A1103300A12C3
:100FB8008A11B5250A128A11F701F801C0300A1200
:100FC8008A11A4250A128A1100300A128A11B5253D
:100FD8000A128A11EF2F83120313871DF42FF52F9E
:100FE8006C2F0A128A11AD260A128A116C2F6C2FE7
:080FF8006C2F0A128A11002877
:00000001FF
